:04000000020059326F
:01000B0032C2
:0100130032BA
:01001B0032B2
:0300230002014A8D
:01002B0032A2
:01003300329A
:01003B003292
:03004300023F0079
:01004B003282
:03005300023F0069
:0200B200D2007A
:0300DC00020056C9
:0300560002035151
:2000DF00AC82AD83AEF0FFC3E49C74C29D74019EE49F400EEC9460ED9409EE9400EF94009D
:2000FF0050087C007DC27E017F008C828D838EF0EF120FC175820122AD82AE83AFF07B00CF
:20011F007C00C3EB955CEC955D501F2000FDD200EB2DF8EC3EF98F02888289838AF01210F3
:20013F00FEF5990BBB00DB0C80D822C0E0C082C083C007C006C0D075D000109802803DE51A
:20015F00AA20E519AE22AF2374012522F522E43523F5238E8274F82FF583E599F0AF2390FC
:20017F00E698EFF000000000AE22E5237F0090E699EEF000000000E4F522F5231099028081
:20019F0002C200D0D0D006D007D083D082D0E032E582FF24F0500475823F22EF24F6500821
:2001BF008F0674572EF5822274302FF58222E58275F004A4FFAEF024E8FCEE341EFDE5183A
:2001DF00C4540FF582C007C006C005C0041201AFAB82D004D005D006D0078C828D83EBF00E
:2001FF0074022FFFE43EFEEF24E8FFEE341EFE740F5518F582C007C0061201AFAD82D00629
:20021F00D0078F828E83EDF022751900901EE87466F0755019755100755240754CF8754DB3
:20023F0000754E01754F00758251120B0F8519187582001201CD75501975510075524075F6
:20025F004CF9754D00754E01754F00758251120B0F8519187582011201CD7550197551004A
:20027F00755240754CFA754D00754E01754F00758251120B0F8519187582021201CD75508B
:20029F0019755100755240754CFB754D00754E01754F00758251120B0F851918758203121D
:2002BF0001CD755019755100755240754CFC754D00754E01754F00758251120B0F85191875
:2002DF007582041201CD755019755100755240754CFD754D00754E01754F00758251120B0C
:2002FF000F8519187582051201CD755019755100755240754CFE754D00754E01754F007515
:20031F008251120B0F8519187582061201CD755019755100755240754CFF754D00754E013B
:20033F00754F00758251120B0F8519187582070201CD90E60BE4F0C203E4F513F514F515C9
:20035F00F516C202751200C201E4F510F51190E680E0FF740A4FF09005DC1210A690E680B5
:20037F00E0FF74F75FF090E600E0FF74E75F4410F090E601E0FF74404FF0120228D2E890A3
:20039F00E668E0FF74084FF090E65CE0FF74014FF0E0FF74024FF0E0FF74204FF0E0FF7458
:2003BF00104FF090E61274A2F00000000090E61474E2F00000000090E611E0FF747F5FF0C9
:2003DF000000000090E610E0FF747F5FF00000000090E613E0FF747F5FF00000000090E637
:2003FF0015E0FF747F5FF00000000090E6917480F00000000090E6917480F0D2ACC2BCD204
:20041F0099C298D2AF300205120B74C20212062C80F375820022AF82C007120655E582D051
:20043F0007600475820122BFB12C90E6BAE0F582120C9AAE82AF838E048F05EE4F60178C75
:20045F00828D83E090E740F090E68AE4F090E68B04F07582012275820022E582FF7014ADD1
:20047F005CAE5DAF5E8D828E838FF0E4120F8F7582012275820022E582FF7065E55C706136
:20049F0090E6837402F07422F07416F07436F090E6047480F00000000090E6047482F00086
:2004BF0000000090E604E4F00000000090E6917480F00000000090E6917480F000000000F9
:2004DF0090E6047480F00000000090E6047486F00000000090E604E4F000000000758201F5
:2004FF00227582002275820122AF82BF01047F0180027F008F8222C0E0C082C083C007C033
:20051F00D075D000D202AF9174EF5FF59190E65D7401F0D0D0D007D083D082D0E032C0E075
:20053F00C082C083C0D075D008903C01E02401F0A3E03400F0903C01E0FEA3E0FFBE40198D
:20055F00BF1F16B2043004067592B8E280047592B0E2903C01E4F0A3F0AF9174EF5FF5911E
:20057F0090E65D7402F0D0D0D083D082D0E032C021C0E0C0F0C082C083C007C006C005C034
:20059F0004C003C002C001C000C0D075D000758200120E75AF9174EF5FF59190E65D7410F2
:2005BF00F0D0D0D000D001D002D003D004D005D006D007D083D082D0F0D0E0D02132C021D7
:2005DF00C0E0C0F0C082C083C007C006C005C004C003C002C001C000C0D075D0007582013E
:2005FF00120E75AF9174EF5FF59190E65D7420F0D0D0D000D001D002D003D004D005D00603
:0D061F00D007D083D082D0F0D0E0D02132BF
:0211FE000000EF
:1600B400E4F522F523752460752509F526F527F528F529752A086E
:20062C00E5AA20E02390E690E0FE7F0090E691E07C004FF55CEC4EF55D90F00075F0001213
:20064C00011790E6917480F022AF82BF2002800FBF2103020718BF220302077702077BC21A
:20066C00E890E6B57401F090E68BE4F090E6B5F0D2E890E68BE0FFBF07F8000000007E0030
:20068C007F00EE2424FBEF3400FC7D40EE2440F582EF34E7F583E0FA8B828C838DF0120FE3
:2006AC008F0EBE00010FC3EE9407EF6480948040D190002775F0401210FEFE7F00900026D0
:2006CC0075F0401210FE7C004207EC42068E048F057E007F0090002575F0401210FEFA7B3E
:2006EC0000A8247900E84203E942028B008A01E4FAFBE84207E94206EA4205EB42048F828B
:20070C008E838DF0EC1200DF7582012290E6B57401F07E007F00EE2440FCEF34E7FDEE2454
:20072C0024F9EF3400FA7B4089828A838BF01210FEF98C828D83F00EBE00010FC3EE9407D6
:20074C00EF6480948040CF90E68AE4F00000000090E68B7407F00000000090E6A0E0FF2042
:13076C00E1F890E6B5E4F075820122758201227582002255
:201E00001201000202000040192A41540300010203010A060002FFFFFF40010009024300EB
:201E200002010080320904000001020201000524001001042402000524060001052401011B
:1F1E4000010705810340004009040100020A0000000705020200020007058602000200B0
:201E60000902430002010080320904000002020201030524001001042402000524060001B4
:201E800005240101010705810340004009040100020A000000070502024000000705860208
:031EA000400000FF
:201EA400040309040E034E0075006D00610074006F0030034F007000730069007300200024
:201EC40028004300440043002000530065007200690061006C0020004D006F0064006500E7
:201EE4002900220330003100320033003400350036003700380039006100620063006400F9
:061F04006500660000000C
:20077F00AF82E530252BF535E531352CF536753702903C00E4F0EF2FFF903C00E0E060049D
:20079F007582002290E678E0FB74804BF0E0FB30E20C90000AC0071210A6D00780DB90E65F
:2007BF0079EFF090E678E0FB20E007903C00E0E060F1903C00E0E060047582002290E6781E
:2007DF00E0FB20E2B490E678E0FB20E13B90E678E0FB74404BF090E678E0FB30E607903CFA
:2007FF0000E0E060F1903C00E0E0600475820022E53714FB8B377003F5822290000AC00766
:20081F001210A6D0070207987A007B00C3EA9535EB953640030208C9C3EA952BEB952C50D8
:20083F0016EA252DF8EB352EF9AC2F888289838CF01210FEFC801DEAC3952BF8EB952CF9D8
:20085F00E82532F8E93533F9AE34888289838EF01210FEFC90E679ECF00ABA00010B90E655
:20087F0078E0FE20E007903C00E0E060F1903C00E0E060047582002290E678E0FE30E20335
:20089F0002079890E678E0FE30E10302082B90E678E0FF74404FF090E678E0FF30E6079049
:2008BF003C00E0E060F17582002290E678E0FF74404FF090E678E0FF30E607903C00E0E07D
:2008DF0060F1903C00E0E060047582002275820122AF82903C00E4F0EF2FFF4307017401D7
:2008FF00B53808E4B5390474018001E4FE903C00E0E06004758200227C007D0090E678E066
:20091F00FB74804BF0E0FB30E21090000AC007C0061210A6D006D00780D390E679EFF09044
:20093F00E678E0FB20E007903C00E0E060F1903C00E0E060047582002290E678E0FB20E2A7
:20095F00AC90E678E0FB20E11C90E678E0FB74404BF090E678E0FB30E607903C00E0E0605C
:20097F00F175820022EE600990E678E0FB74204BF090E679E0E4F53DF53E7401253DF8E494
:20099F00353EF9C3E89538E99539506A90E678E0F920E007903C00E0E060F1903C00E0E0AC
:2009BF0060047582002290E678E0F930E20302090C7402253DF8E4353EF9E8B5380DE9B508
:2009DF00390990E678E0F9742049F0A83DA93E053DE4B53D02053EAC3DAD3EE8253AF8E9FD
:2009FF00353BF9AB3C90E679E0FA888289838BF0120F8F02099990E678E0FB20E007903C3E
:200A1F0000E0E060F1903C00E0E060047582002290E678E0FB30E20302090C90E678E0FFDB
:200A3F0074404FF0EC253AFCED353BFDAF3C90E679E0FE8C828D838FF0120F8F90E678E030
:200A5F00FF30E607903C00E0E060F1903C00E0E060047582002275820122858246E4F54AEB
:200A7F00F54BAB3FAC40C3E54A9541E54B95424003020B0B7A0090E678E0FF30E4067A013B
:200A9F008C078F478A070AEF2447F98B06A7068A070AEF2447F9AE4AAF4B054AE4B54A028E
:200ABF00054BEE2543FEEF3544FFAD458E828F838DF01210FEF78A2B752C00752D47752E82
:200ADF0000752F40E4F530F531F532F533F534854682C004C00312077FE582D003D0047082
:200AFF0003F582220BBB00010C020A8575820122AF827E0090E678E0FD30E4067E01AD4DB0
:200B1F008D538E050EED2453F9AC4CA7048E2B752C00752D53752E00752F40E4F530F53130
:200B3F00F532F533F5348F82C00712077FE582D0077003F58222854E38854F3985503A85B8
:150B5F00513B85523C8F821208F0E5827003F58222758201223A
:06008800E478FFF6D8FD4C
:1200CA0075560075570075586075591E755A1C755B1E9B
:200B740090E6B9E0FF24F45003020C7AEF240A83F582EF241083F583E473A6BC7AD27A7A32
:200B9400E87AF80F275B0B0B0C0B0C0C0B0C0B0C0C0C120CF4E5826003020C9090E6A0E05B
:200BB400FF74014FF0020C90120D81E5826003020C9090E6A0E0FF74014FF0020C90120D62
:200BD400F0E5826003020C9090E6A0E0FF74014FF0020C90120431E5826003020C90120E93
:200BF400A0020C90120504AF8290E740EFF090E68AE4F090E68B04F0020C9090E6BAE0F555
:200C140082120508E582707490E6A0E0FF74014FF0806990E6BCE0FF755C55755D00755E66
:200C3400408F82120479E582700B90E6A0E0FF74014FF0804790E740E555F090E68AE4F0B9
:200C540090E68B04F0803590E6BCE0FF90E6BAE0F55C8F82120496E582702190E6A0E0FFBA
:200C740074014FF0801690E6B9E0F582120435E582700990E6A0E0FF74014FF090E6A0E0C6
:200C9400FF74804FF022AF828F0653067FEE24F75003020CF0EE240A83F582EE240D83F547
:200CB40083E473C9CDE0F0E4F0E8F0EC0C0C0C0C0C0C0C0C0C90E6A022EF30E7067EA27FF9
:200CD400E680047EA17FE68E828F832290E6A32290E6A42290E6A52290E6A622900000222A
:200CF40090E6B8E0FFBF8002801FBF81028005BF8273803490E740E4F090E741F090E68A91
:200D1400F090E68B7402F08060E55725E0FFE556420790E740EFF090E741E4F090E68AF0B2
:200D340090E68B7402F0804190E6BCE0F582120C9AAE82AF838E048F05EE4F7003F5822265
:200D54008C828D83E0FC30E0047F0180027F0090E740EFF090E741E4F090E68AF090E68BDD
:200D74007402F08004758200227582012290E6B8E0FF6005BF0258801B90E6BAE0FFBF014D
:200D940005755700805290E6BAE0FFBF060280487582002290E6BAE0703190E6BCE0F582AB
:200DB400120C9AAE82AF83E0FD5305FE8E828F83EDF090E6BCE0FF30E70343071053071FD5
:200DD40090E683EFF074204FF0800D7582002290E6B9E0F5820204357582012290E6B8E0C5
:200DF400FF6005BF026E802690E6BAE0FFBF0203020E7190E6BAE0FFBF0105755701805DD4
:200E140090E6BAE0FFBF060280537582002290E6BAE0703C90E6BCE0F582120C9AAE82AF20
:200E340083EE4F7003F582228E828F83E0FD4305018E828F83EDF090E6BCE0FF30E703431D
:200E5400071053071F90E683EFF074204FF0800D7582002290E6B9E0F582020435758201E4
:200E740022D310AF01C3C0D0E582FF600E75581C75591E755A60755B1E800C755860755909
:200E94001E755A1C755B1ED0D092AF2290E6B57401F090E6BBE0FFBF01028019BF02028006
:200EB40029BF03028033BF0603020F61BF0703020F76020F857E007F1E8F0690E6B3EEF0A7
:200ED4007E007F1E90E6B4EEF022AF5990E6B3EFF0AE5890E6B4EEF0227DA47E1E7F80902D
:200EF400E6BAE0F55C7B008B020BEAB55C0280428D008E018F028D828E838FF01210FE28A7
:200F1400F8E439F9880589068A0774012DF9E43EFA8F0489828A838CF01210FEF9B903024D
:200F340080067D007E007F00ED4E6006C3E55C9B50B5ED4E600D8E0790E6B3EFF090E6B4E9
:200F5400EDF02290E6A0E0FF74014FF0227E127F1E8F0690E6B3EEF07E127F1E90E6B4EEA5
:1B0F7400F022AF5B90E6B3EFF0AE5A90E6B4EEF02290E6A0E0FF74014FF02241
:200066007902E94400601B7A019011FE780175923CE493F2A308B800020592D9F4DAF2750E
:0200860092FFE7
:1B0F8F0020F71130F6138883A88220F509F6A8837583002280FEF280F5F02261
:203F00000205160002053D0002118C000211F60002058E000205DD0002118900020FB500BD
:203F2000020FB700020FB800020FB900020FBC000211FC000211FD00020FAA00020FAC00C2
:203F400002118E00020FB5000211880002118A0002118B0002118D0002118F000211F500DA
:203F60000210FD00020FB500020FB500020FB500020FB600020FBA00020FBD00020FBF00B0
:203F8000020FBB00020FBE00020FC0000210FC00020FAD00020FAF00020FB100020FB300A3
:183FA000020FAE00020FB000020FB200020FB400020FAB000211FB0037
:010FAA003214
:010FAB003213
:010FAC003212
:010FAD003211
:010FAE003210
:20008E007800E84400600A790075923CE4F309D8FC7801E84400600C7901903C00E4F0A306
:0400AE00D8FCD9FAA7
:010FAF00320F
:010FB000320E
:010FB100320D
:010FB200320C
:010FB300320B
:010FB400320A
:010FB5003209
:010FB6003208
:010FB7003207
:010FB8003206
:010FB9003205
:010FBA003204
:010FBB003203
:010FBC003202
:010FBD003201
:010FBE003200
:010FBF0032FF
:010FC00032FE
:200FC100D310AF01C3C0D085821A85831B85F01CF51D90E600E05418C423541FFB70047B3D
:200FE10001801690E600E05418C423541FFABA01047A0280027A048A03D2CDD2CC8B5C75E2
:201001005D00755E00755F009071B075F00BE4C00312111A851A5C851B5D851C5E851D5FCE
:20102100121190A882A983AAF0FFD00308B8000909B900050ABA00010FEFC313EA13FAE931
:2010410013F9E813F874FFC398F874FF99FF8FCB7900EB60027401FFEF28F5CAD2CAC29F58
:20106100D29EC29DD29C438780D299D0D092AF223098FD859982C29822AF8210990280FB42
:201081008F9922AF82BF0A0A75820DC00712107AD0078F82C00712107AD007BF0D067582AF
:0510A1000A02107A2292
:2010A600AE82AF8390E600E05418C423541FFD70057CB1FD801C90E600E05418C423541F58
:2010C600FBBB01067A617B0180047AC27B028A048B058C5C8D5D155C74FFB55C02155DE57B
:1610E6005C455D70F1EE24FFFAEF34FFFB8A068B07EA4B70DD22A7
:0110FC0032C1
:0110FD0032C0
:0D00590075815F1211F7E582600302005609
:1C10FE0020F71430F6148883A88220F507E6A88375830022E280F7E49322E02201
:20111A00AAF0FBE582855CF0A4FCADF0E583855CF0A42DFDE435F0FEE582855DF0A42DFD96
:20113A00E5F03EFEE433FFEA855CF0A42EFEE5F03FFFE583855DF0A42EFEE5F03FFFE5824C
:20115A00855EF0A42EFEE5F03FFFEB855CF0A42FFFEA855DF0A42FFFE583855EF0A42FFF96
:0E117A00E582855FF0A42F8EF08D838C82229B
:011188003234
:011189003233
:01118A003232
:01118B003231
:01118C003230
:01118D00322F
:01118E00322E
:01118F00322D
:20119000FB7A20E4FCFDFEFFE5822582F582E58333F583E5F033F5F0EB33FB4017DAE98098
:2011B00042E5822582F582E58333F583E5F033F5F0EB33FBEC33FCED33FDEE33FEEF33FFC7
:2011D000EC955CED955DEE955EEF955F4013EC955CFCED955DFDEE955EFEEF955FFF4382F1
:0511F00001DABEEB2254
:0111F50032C7
:0111F60032C6
:0411F70075820022DB
:0111FB0032C1
:0111FC0032C0
:0111FD0032BF
:00000001FF
